:0400000026EF00F0F7
:10000800FFFF5482D9CF31F0DACF32F0F3CF33F09B
:10001800F4CF34F09EBCC2A002D030EC04F0FFFF55
:100028009EB2CAA403D083EC06F09E92FFFF34C0B0
:10003800F4FF33C0F3FF32C0DAFF31C0D9FF549266
:100048001100FFFFEFEF05F0FFFF3850D8B405D0DF
:10005800355036103710D8A40ED0FFFF000E356E7D
:10006800000E366E000E376E4ED0FFFF382AD8903D
:10007800373236323532FFFF000E35143A6E000E35
:1000880036143B6EFE0E37143C6E3A503B103C1053
:10009800D8B40DD0EAD7FFFF382A010E3526000E56
:1000A8003622000E3722D890373236323532FFFFEB
:1000B800000E35143A6E000E36143B6EFF0E3714E0
:1000C8003C6E3A503B103C10D8B407D0E4D7FFFF41
:1000D8003806D890353636363736FFFF36BE03D069
:1000E800020E3860F4D7FFFF38A0369ED890383219
:1000F800385037123950D8A4378E35C035F036C04D
:1001080036F037C037F0FFFF1200FFFFFFFF25046E
:100118002610D8A409D0000E266E000E256E2B508E
:10012800D8A402D0010E1C6EFFFF1D504D6E4E6A02
:100138001C504F6E506A090E4F26000E50224D502B
:100148004F5C5050800A516E4E50800A5158D8A0CA
:1001580018D0F40E2C1811E12D04D8A40ED02B0EB3
:100168004A6E000E4B6E2AC04CF033EC02F0000EC3
:100178002D6E000E2C6E1D2A09D0FFFF2C4A2D2A49
:1001880005D0FFFF000E2D6E000E2C6EFFFF27041A
:10019800D8A40ED0D60E216E010EFFFF226E000EDF
:1001A800266E010E256E000E1D6E000E1C6E0CD004
:1001B800FFFF2804D8B403D02904D8A405D0FFFF32
:1001C800900E216E020EE9D7FFFF1200FFFFFFFF1E
:1001D80025042610D8A404D0000E266E000E256E25
:1001E800FFFF2704D8A424D05304D8A40BD02B5045
:1001F8004C6E4D6A4CC04AF04DC04BF0B7EC03F062
:10020800000E536EFFFFF40E2C180EE12D04D8A437
:100218000BD02B0E4A6E000E4B6E79EC03F0000EDD
:100228002D6E000E2C6E14D0FFFF2C4A2D2A10D0F4
:10023800FFFF5350D8A409D02B50D8A406D02B0EBA
:100248004A6E000E4B6EB7EC03F0FFFF010E536EC3
:10025800FFFF2804D8B403D02904D8A412D0FFFF84
:100268002750D8A40ED0900E216E020E226E000EDA
:10027800266E010E256E000E4A6E000E4B6EB7EC10
:1002880003F0FFFF1200FFFFFFFF25042610D8A48C
:1002980008D029C01EF01EC02AF0000E266E000EDF
:1002A800256EFFFF5204D8A407D01EC04AF02B5079
:1002B80013EC05F0000E526EFFFFF40E2C1810E13F
:1002C8002D04D8A40DD02B0E4A6E000E4B6E1EC006
:1002D8004CF033EC02F0000E2D6E000E2C6E03D0A5
:1002E800FFFF2C4A2D2AFFFF2704D8A411D0D60ED1
:1002F800216E010E226E000E266E010E256E010E75
:10030800526E000E4A6E000E4B6EB7EC03F014D01E
:10031800FFFF2750D8A410D02850D8A40DD02950BA
:10032800D8A40AD0140E216E010E226E000E266E7D
:10033800010E256E010E526EFFFF1200FFFFFFFF38
:1003480005040610D8A41CD0010E466E060E456E94
:10035800010E476E7EEC05F0010E466E020E456EEC
:10036800010E476E7EEC05F0010E466E010E456EDD
:10037800010E476E7EEC05F0000E066E000E056E4F
:10038800FFFF0750D8A420D0D60E016E030E026ED0
:10039800000E066E010E056E010E466E060E456EC7
:1003A800000E476E7EEC05F0010E466E020E456E9D
:1003B800000E476E7EEC05F0010E466E010E456E8E
:1003C800000E476E7EEC05F0FFFF1200FFFFFFFFF7
:1003D80005040610D8A414D0020E466E010E456E10
:1003E800000E476E7EEC05F0010E466E060E456E59
:1003F800000E476E7EEC05F0000E066E000E056ED0
:10040800FFFF77EC02F00009D8B409D0020E466E5F
:10041800010E456E010E476E7EEC05F009D0FFFF18
:10042800020E466E010E456E000E476E7EEC05F01C
:10043800FFFF0704D8A410D0000E066E010E056E4B
:10044800460E016E030E026E020E466E010E456EDA
:10045800000E476E7EEC05F0FFFF1200FFFFFFFF66
:100468004C50D8A419D0010E466E030E456E4AC0F2
:10047800D9FF4BC0DAFFDF50476E7EEC05F0010E66
:10048800466E070E456E4AC0D9FF4BC0DAFFDF50F3
:10049800476E7EEC05F019D0FFFF010E466E000E88
:1004A800456E4AC0D9FF4BC0DAFFDF50476E7EEC7D
:1004B80005F0010E466E040E456E4AC0D9FF4BC0CA
:1004C800DAFFDF50476E7EEC05F0FFFF4AC0D9FF28
:1004D8004BC0DAFFDF50010A4AC0D9FF4BC0DAFF30
:1004E800DF6E1200FFFFFFFF08C049F009C04AF0A5
:1004F8001A50D8A41BD049C03DF04AC03EF04BEC7E
:1005080006F03DC040F03EC041F03FC042F0660EEC
:10051800436EE00E446E430E456EBBEC02F0D8B05D
:1005280005D0010EFFFF1A6E010E1ED0FFFF1A0440
:10053800D8A418D0CD0E406EF40E416E430E426E14
:1005480049C03DF04AC03EF04BEC06F03DC043F0D8
:100558003EC044F03FC045F0BBEC02F0D8B002D03A
:10056800000EE0D7FFFF1A50FFFF1200FFFFFFFF4A
:1005780042AE0FD0000E466E000E476E800E486EDB
:100588004050465C406E41504758416E4250485872
:10059800426EFFFF45AE0FD0000E466E000E476E4E
:1005A800800E486E4350465C436E44504758446E34
:1005B80045504858456EFFFF000E401A000E411A7C
:1005C800800E421A000E431A000E441A800E451A75
:1005D8004350405C4450415845504258D8B002D02E
:1005E800D89002D0FFFFD880FFFF1200FFFFFFFF67
:1005F8003B6E3550D8B402D0010E02D0FFFF000E7A
:10060800FFFF3A6E010E3B6405D0000E396E010EF5
:10061800386E04D0FFFF3BC038F0396AFFFF38C09E
:100628003CF03A04D8A40FD03CC036F0010E376E27
:10063800362A03D0FFFFD8903736FFFF362EFAD779
:100648003750841210D0FFFF3CC036F0010E376ED1
:10065800362A03D0FFFFD8903736FFFF362EFAD759
:100668003750FF0A8416FFFF1200FFFFFFFF3B6EA3
:100678003550D8B402D0010E02D0FFFF000EFFFFA4
:100688003A6E070E3B6405D0000E396E070E386EC1
:1006980004D0FFFF3BC038F0396AFFFF38C03CF098
:1006A8003A04D8A40FD03CC036F0010E376E362A73
:1006B80003D0FFFFD8903736FFFF362EFAD73750D2
:1006C800831210D0FFFF3CC036F0010E376E362A79
:1006D80003D0FFFFD8903736FFFF362EFAD73750B2
:1006E800FF0A8316FFFF1200FFFFFFFF010E466E91
:1006F800000E456E4AC0D9FF4BC0DAFFDF50476E87
:100708007EEC05F0010E466E030E456E4AC0D9FF19
:100718004BC0DAFFDF50476E7EEC05F0010E466EE7
:10072800040E456E4AC0D9FF4BC0DAFFDF50476E52
:100738007EEC05F0010E466E070E456E4AC0D9FFE5
:100748004BC0DAFFDF50476E7EEC05F04AC0D9FF98
:100758004BC0DAFFDF50010A4AC0D9FF4BC0DAFFAD
:10076800DF6E1200FFFFFFFF010E466E000E456EA2
:100778004AC0D9FF4BC0DAFFDF50476E7EEC05F068
:10078800010E466E030E456E4AC0D9FF4BC0DAFF14
:10079800DF50476E7EEC05F0010E466E040E456E86
:1007A8004AC0D9FF4BC0DAFFDF50476E7EEC05F038
:1007B800010E466E070E456E4AC0D9FF4BC0DAFFE0
:1007C800DF50476E7EEC05F04AC0D9FF4BC0DAFF18
:1007D800DF50010A4AC0D9FF4BC0DAFFDF6E1200B2
:1007E800FFFFFFFF000E206E000E1F6E000E196E39
:1007F800000E186E000E176E000E166E98EC06F0BE
:10080800FFFF16501710D8B4FBD7000E176E000E56
:10081800166EA8EC06F00A0E2018D8A404D0000E14
:10082800206EAFEC06F0FFFF640E1F18D8A404D0AA
:10083800000E1F6EB7EC06F0FFFFE80E1818E0E197
:10084800030E1918D8A4DCD7000E196E000E186E06
:10085800B4EC06F0D5D7FFFFFFFFC350C4CF2EF08E
:100868002F6A2EC02FF02E6A2E12000E2F12C2A44D
:1008780003D0306A302A02D0FFFF306AFFFF3050C1
:10088800020D120EF324D96E000EF420DA6E2EC07B
:10089800DEFF2FC0DDFFC2B403D02E6A2E2A02D09D
:1008A800FFFF2E6AFFFF2E462E46C2502E18FB0B66
:1008B8002E18C26E9E9CC2821200FFFFFFFFFFFF30
:1008C8003D6E040E3D6405D0000E3C6E040E3B6E7A
:1008D80004D0FFFF3DC03BF03C6AFFFF3BC03EF049
:1008E8003EC037F03EC038F0010E396E382A03D0CA
:1008F800FFFFD8903936FFFF382EFAD739508214C7
:100908003A6E372A03D0FFFFD8903A32FFFF372ECE
:10091800FAD73A50356E366A1200FFFFFFFF2150B2
:100928002210D8B40ED001D80CD0FFFF0500FA6E03
:100938002150FD6E2250FE6EF850FF6EFA501200E4
:10094800FFFFFFFF23502410D8B410D020EE23F06F
:1009580001D80CD0FFFF0500FA6EDE50FD6EDE50A8
:10096800FE6EF850FF6EFA501200FFFFFFFF1200F4
:10097800FFFFFFFF01500210D8B40ED001D80CD0F1
:10098800FFFF0500FA6E0150FD6E0250FE6EF85032
:10099800FF6EFA501200FFFFFFFF03500410D8B497
:1009A80010D020EE03F001D80CD0FFFF0500FA6E3E
:1009B800DE50FD6EDE50FE6EF850FF6EFA501200EB
:1009C800FFFFFFFF1200FFFFFFFF000E426E000E49
:1009D800416E000E3F14436EFF0E4014446E4350A8
:1009E8004410D8A408D03F5063EC04F035C041F05F
:1009F80036C042F00DD0FFFF030E44184310D8A4B0
:100A080007D03F505FEC05F035C041F036C042F0EA
:100A1800FFFF41C03FF042C040F01200FFFFFFFF60
:100A28004B6E4A50D8A411D0010E466E030E456E87
:100A38004BC047F07EEC05F0010E466E070E456E82
:100A48004BC047F07EEC05F011D0FFFF010E466E5B
:100A5800000E456E4BC047F07EEC05F0010E466E69
:100A6800040E456E4BC047F07EEC05F0FFFF120008
:100A7800FFFFFFFF000EC46E000EC36EC30EC2164A
:100A8800CF0EC116C150F00B0D09C16EC08EC050FB
:100A9800C70B2009C06EC050F80B0109C06E9E9CA0
:100AA8009D8CF28CF28EC280190EFFFFE82EFDD7C6
:100AB800C2821200FFFFFFFF3A6E010E3A6405D0B2
:100AC800000E386E010E376E04D0FFFF3AC037F0C3
:100AD800386AFFFF37C039F03950020D120EF3247F
:100AE800D96E000EF420DA6EDECF35F0DDCF36F0A9
:100AF8001200FFFFFFFF000E4514486EFF0E46145C
:100B0800496E49044810D8A406D047C035F045506E
:100B18003AEC03F00BD0FFFF020E49184810D8A496
:100B280005D047C035F04550FBEC02F0FFFF12003E
:100B3800FFFFFFFFD60E216E010E226E740E236E8C
:100B48000B0E246E000E276E000E266E010E256E0B
:100B5800000E286E000E296E000E2A6E010E2B6EF6
:100B6800000E2D6E000E2C6E1200FFFFFFFF000E10
:100B7800406E020E3F6EE8EC04F03F50276E000E08
:100B8800406E040E3F6EE8EC04F03F50286E000EF5
:100B9800406E030E3F6EE8EC04F03F50296E1200E1
:100BA800FFFFFFFFCA94000ECC6E000ECA6E000E47
:100BB800CB6ECA50870B2009CA6ECA50FC0B0109BC
:100BC800CA6E7D0ECB6E9E929F829D82F28CF28EB3
:100BD800CA841200FFFF740EF66E0D0EF76E000E3B
:100BE800F86E0900F5CF52F00900F5CF53F000EE8A
:100BF80001F02D0EEE6AE806FDE154905492000EC5
:100C0800F86E0001A1EF06F0FFFF040E1B18D8A430
:100C180010D0010E466E050E456E000E406E000E99
:100C28003F6EE8EC04F03F50476E7EEC05F0000E96
:100C38001B6EFFFF1B2A1200FFFFFFFFD60E016E7F
:100C4800030E026E6C0E036E0C0E046E000E066E22
:100C5800010E056E000E076E000E096E000E086E7E
:100C68001200FFFFFFFF000E406E010E3F6EE8EC22
:100C780004F03F50076E030E406E000E3F6EE8EC26
:100C880004F03FC008F040C009F01200FFFFFFFF6A
:100C98003DC035F03EC036F0376A8E0E386E000E15
:100CA800396E28EC00F035C03DF036C03EF037C054
:100CB8003FF01200FFFFFFFF92809282948094829F
:100CC800948494869488000E956E9690969212005D
:100CD800FFFFFFFF010E466E050E456E000E476EC4
:100CE8007EEC05F01200FFFFFFFF5FEC06F08EECD4
:100CF80006F03DEC05F0D5EC05F01200FFFFFFFF14
:100D0800202A1F2A184A192A000E176E010E166E7D
:100D18001200FFFFFFFF9E9C9D8C9E929F829D82EA
:100D2800F28CF28E1200FFFFFFFF9DEC05F06DECD8
:100D380006F021EC06F01200FFFFFFFF78EC06F04A
:100D4800F5EC03F026EF00F0FFFF92EC04F008EC5E
:100D580006F01200FFFFFFFFBDEC04F01200FFFFDA
:100D6800FFFF1200FFFFFFFF1200FFFF0101FFFF5F
:020000040020DA
:08000000FFFFFFFFFFFFFFFF00
:020000040030CA
:0E000000FF2F0F1F838385FF0FC00FE00F40FF
:00000001FF
