:0400000026EF00F0F7
:10000800FFFF3C82D9CF26F0DACF27F0F3CF28F0D4
:10001800F4CF29F09EBCC2A002D021EC02F0FFFF71
:100028009EB2CAA403D02CEC04F09E92FFFF29C014
:10003800F4FF28C0F3FF27C0DAFF26C0D9FF3C929F
:100048001100FFFFE5EF03F0FFFF05040610D8A439
:1000580006D009C020F0000E066E000E056EFFFFE8
:100068003A04D8A407D020C037F0010ED9EC02F02A
:10007800000E3A6EFFFFF40E1A1810E11B04D8A404
:100088000DD0210E376E000E386E20C039F0E6EC28
:1000980000F0000E1B6E000E1A6E03D0FFFF1A4A06
:1000A8001B2AFFFF0704D8A414D01A0E016E010EF4
:1000B800026E000E066E010E056E000E1B6E000E1F
:1000C8001A6E000E216E010E3A6E000E2CEC03F033
:1000D8001DD0FFFF0750D8A419D00850D8A416D0B7
:1000E8000950D8A413D0060E016E060E026E000E3B
:1000F800066E010E056E000E1B6E000E1A6E000EC7
:10010800216E010E3A6E000E2CEC03F0FFFF120078
:10011800FFFFFFFF05040610D8A407D0000E2CEC43
:1001280003F0000E066E000E056EFFFF0704D8A44C
:100138001ED03B04D8A405D0010E2CEC03F0000E11
:100148003B6EFFFFF40E1C180EE11D04D8A40BD063
:10015800220E376E000E386EA8EC01F0000E1D6EF0
:10016800000E1C6E10D0FFFF1C4A1D2A0CD0FFFF8A
:10017800000E2CEC03F0000E1D6E000E1C6E010E1E
:100188003B6E000E226EFFFF0804D8B403D00904AA
:10019800D8A415D0FFFF0750D8A411D0500E016E77
:1001A800000E026E000E066E010E056E000E1D6E2C
:1001B800000E1C6E000E226E000E2CEC03F0FFFFEA
:1001C8001200FFFFFFFF3950D8A419D0010E336E7B
:1001D800030E326E37C0D9FF38C0DAFFDF50346EF5
:1001E80072EC03F0010E336E070E326E37C0D9FF82
:1001F80038C0DAFFDF50346E72EC03F019D0FFFF1D
:10020800010E336E000E326E37C0D9FF38C0DAFFE8
:10021800DF50346E72EC03F0010E336E040E326E52
:1002280037C0D9FF38C0DAFFDF50346E72EC03F004
:10023800FFFF37C0D9FF38C0DAFFDF50010A37C0E7
:10024800D9FF38C0DAFFDF6E1200FFFFFFFF306E04
:100258002A50D8B402D0010E02D0FFFF000EFFFFD3
:100268002F6E010E306405D0000E2E6E010E2D6E1D
:1002780004D0FFFF30C02DF02E6AFFFF2DC031F0F3
:100288002F04D8A40FD031C02BF0010E2C6E2B2ACE
:1002980003D0FFFFD8902C36FFFF2B2EFAD72C5017
:1002A800841210D0FFFF31C02BF0010E2C6E2B2AC8
:1002B80003D0FFFFD8902C36FFFF2B2EFAD72C50F7
:1002C800FF0A8416FFFF1200FFFFFFFF306E2A505F
:1002D800D8B402D0010E02D0FFFF000EFFFF2F6E30
:1002E800070E306405D0000E2E6E070E2D6E04D05A
:1002F800FFFF30C02DF02E6AFFFF2DC031F02F0414
:10030800D8A40FD031C02BF0010E2C6E2B2A03D0AD
:10031800FFFFD8902C36FFFF2B2EFAD72C508312D4
:1003280010D0FFFF31C02BF0010E2C6E2B2A03D00A
:10033800FFFFD8902C36FFFF2B2EFAD72C50FF0A40
:100348008316FFFF1200FFFFFFFF010E336E000E42
:10035800326E37C0D9FF38C0DAFFDF50346E72EC26
:1003680003F0010E336E030E326E37C0D9FF38C06A
:10037800DAFFDF50346E72EC03F0010E336E040EB8
:10038800326E37C0D9FF38C0DAFFDF50346E72ECF6
:1003980003F0010E336E070E326E37C0D9FF38C036
:1003A800DAFFDF50346E72EC03F037C0D9FF38C083
:1003B800DAFFDF50010A37C0D9FF38C0DAFFDF6E35
:1003C8001200FFFFFFFF000E1F6E000E1E6E000ED4
:1003D800196E000E186E000E176E000E166E48ECA1
:1003E80004F0FFFF16501710D8B4FBD7000E176E95
:1003F800000E166E4DEC04F00A0E1F18D8A404D097
:10040800000E1F6E55EC04F0FFFF640E1E18D8A4F2
:1004180004D0000E1E6E58EC04F0FFFFE80E18180A
:10042800E0E1030E1918D8A4DCD7000E196E000EEF
:10043800186E52EC04F0D5D7FFFFFFFFC350C4CFAE
:1004480023F0246A23C024F0236A2312000E241206
:10045800C2A403D0256A252A02D0FFFF256AFFFF20
:100468002550020D120EF324D96E000EF420DA6E18
:1004780023C0DEFF24C0DDFFC2B403D0236A232AD1
:1004880002D0FFFF236AFFFF23462346C2502318EA
:10049800FB0B2318C26E9E9CC2821200FFFFFFFF57
:1004A800FFFF326E040E326405D0000E316E040E6A
:1004B800306E04D0FFFF32C030F0316AFFFF30C029
:1004C80033F033C02CF033C02DF0010E2E6E2D2AE0
:1004D80003D0FFFFD8902E36FFFF2D2EFAD72E50CF
:1004E80082142F6E2C2A03D0FFFFD8902F32FFFFE3
:1004F8002C2EFAD72F502A6E2B6A1200FFFFFFFF0F
:1005080001500210D8B40ED001D80CD0FFFF05005E
:10051800FA6E0150FD6E0250FE6EF850FF6EFA50F2
:100528001200FFFFFFFF03500410D8B410D020EED4
:1005380003F001D80CD0FFFF0500FA6EDE50FD6E07
:10054800DE50FE6EF850FF6EFA501200FFFFFFFFFC
:100558001200FFFFFFFF000E376E000E366E000E12
:100568003414386EFF0E3514396E38503910D8A44B
:1005780008D0345054EC02F02AC036F02BC037F0C3
:100588000DD0FFFF030E39183810D8A407D0345007
:1005980091EC03F02AC036F02BC037F0FFFF36C0CD
:1005A80034F037C035F01200FFFFFFFF386E3750C8
:1005B800D8A411D0010E336E030E326E38C034F059
:1005C80072EC03F0010E336E070E326E38C034F051
:1005D80072EC03F011D0FFFF010E336E000E326E85
:1005E80038C034F072EC03F0010E336E040E326E34
:1005F80038C034F072EC03F0FFFF1200FFFFFFFF7A
:1006080005040610D8A407D0000E066E000E056E6D
:10061800000E2CEC03F0FFFF0704D8A40AD01A0E32
:10062800016E010EFFFF026E000E066E010E056ED2
:100638000CD0FFFF0804D8B403D00904D8A405D00F
:10064800FFFF500E016E000EEDD7FFFF1200FFFFF7
:10065800FFFF376E010E336E000E326E37C034F076
:1006680072EC03F0010E336E030E326E37C034F0B5
:1006780072EC03F0010E336E040E326E37C034F0A4
:1006880072EC03F0010E336E070E326E37C034F091
:1006980072EC03F01200FFFFFFFF000EC46E000EA5
:1006A800C36EC30EC216CF0EC116C150F00B0D0992
:1006B800C16EC08EC050C70B2009C06EC050F80B69
:1006C8000109C06E9E9C9D8CF28CF28EC280190E20
:1006D800FFFFE82EFDD7C2821200FFFFFFFF000ECA
:1006E8003214356EFF0E3314366E36043510D8A426
:1006F80006D034C02AF0325069EC01F00BD0FFFF6D
:10070800020E36183510D8A405D034C02AF032505D
:100718002AEC01F0FFFF1200FFFFFFFF2F6E010E12
:100728002F6405D0000E2D6E010E2C6E04D0FFFF35
:100738002FC02CF02D6AFFFF2CC02EF02E50020D7A
:10074800120EF324D96E000EF420DA6EDECF2AF0F2
:10075800DDCF2BF01200FFFFFFFF000E356E020EFB
:10076800346EAEEC02F03450076E000E356E040E97
:10077800346EAEEC02F03450086E000E356E030E87
:10078800346EAEEC02F03450096E1200FFFFFFFF2A
:10079800CA94000ECC6E000ECA6E000ECB6ECA5004
:1007A800870B2009CA6ECA50FC0B0109CA6E7D0E60
:1007B800CB6E9E929F829D82F28CF28ECA8412002A
:1007C800FFFFB60EF66E080EF76E000EF86E090003
:1007D800F5CF3AF00900F5CF3BF000EE01F0220E1C
:1007E800EE6AE806FDE13C903C92000EF86E0001CE
:1007F80041EF04F0FFFF1A0E016E010E026E600E4B
:10080800036E070E046E000E076E000E066E010ED4
:10081800056E000E086E000E096E1200FFFFFFFF46
:100828009280928294809482948494869488000E14
:10083800956E969096921200FFFFFFFF13EC04F05E
:1008480037EC04F050EC03F0CBEC03F01200FFFFA0
:10085800FFFF1F2A1E2A184A192A000E176E010EBA
:10086800166E1200FFFFFFFF9E9C9D8C9E929F823A
:100878009D82F28CF28E1200FFFFFFFF21EC04F044
:10088800E6EC01F026EF00F0FFFFFEEC03F01200AB
:10089800FFFFFFFF83EC02F01200FFFFFFFF1200D3
:1008A800FFFFFFFF1200FFFFFFFF1200FFFF010124
:0208B800FFFF40
:020000040020DA
:08000000FFFFFFFFFFFFFFFF00
:020000040030CA
:0E000000FF2F0F1F838385FF0FC00FE00F40FF
:00000001FF
