:0400000026EF00F0F7
:10000800FFFF5682D9CF38F0DACF39F0F3CF3AF084
:10001800F4CF3BF09EBCC2A002D061EC0CF0FFFF15
:100028009EB2CAA403D018EC0FF09E92FFFF3BC00B
:10003800F4FF3AC0F3FF39C0DAFF38C0D9FF56924F
:080048001100FFFF8EEF0EF026
:1010000000496E69742073797374656D206C756D19
:10101000696E69210A0D0000FFFF05040610D8A4BF
:101020000BD009C031F031C00AF0000E066E000E80
:10103000056E0CC026F0276AFFFF5404D8A40DD01B
:10104000000E2B6E010E2A6E31C049F0010E71ECBC
:101050000DF0E7EC0AF0000E546EFFFFF40E2618B8
:1010600015E12704D8A412D033C02AF02B6A330E1E
:10107000496E000E4A6E31C04BF05FEC0AF0E7ECAF
:101080000AF0000E276E000E266E03D0FFFF264AE0
:10109000272AFFFF0704D8A41AD0100E016E110EE4
:1010A000026E000E066E010E056E000E276E000E1B
:1010B000266E000E336E010E546E000E2B6E000E67
:1010C0002A6E000E9BEC0DF0E7EC0AF01ED0FFFF3D
:1010D0000750D8A41AD00850D8A417D00950D8A4C3
:1010E00014D0F00E016E110E026E000E066E010E8F
:1010F000056E33C00BF026C00CF0000E276E000EFC
:10110000266E000E336E010E546EFFFF1200FFFFBD
:10111000FFFF05040610D8A407D0000E9BEC0DF0CD
:10112000000E066E000E056EFFFF0704D8A429D03E
:101130005504D8A40BD0010E9BEC0DF0000E2B6EC5
:10114000010E2A6EE7EC0AF0000E556EFFFFF40E5A
:10115000281813E12904D8A410D034C02AF02B6A2F
:10116000340E496E000E4A6EE8EC0BF0E7EC0AF024
:10117000000E296E000E286E16D0FFFF284A292A7D
:1011800012D0FFFF000E2B6E000E2A6E000E9BEC9D
:101190000DF0E7EC0AF0000E296E000E286E010E2D
:1011A000556E000E346EFFFF0804D8B403D0090456
:1011B000D8A41BD0FFFF0750D8A417D0180E016E7B
:1011C000100E026E000E066E010E056E000E296EE8
:1011D000000E286E000E346E000E2B6E000E2A6E6E
:1011E000000E9BEC0DF0E7EC0AF0FFFF1200FFFF92
:1011F000FFFF05040610D8A40CD0000E066E000EEA
:10120000056E0BC032F00AC022F0236A0CC024F035
:10121000256AFFFFF40E241822E12504D8A41FD06C
:101220000B5030C052F0536A5226000E5322050E66
:1012300052185310D8B413D032C02AF02B6A320E91
:10124000496E000E4A6E22C04BF05FEC0AF0E7ECEC
:101250000AF0302A000E256E000E246E0FD0FFFF1C
:101260000B5030C052F0536A5226000E5322050E26
:1012700052185310D8B402D0244A252AFFFF07047D
:10128000D8A412D0100E016E110EFFFF026E000ED8
:10129000066E010E056E24C00CF0000E306E000EBE
:1012A000256E000E246E0CD0FFFF0804D8B403D0C6
:1012B0000904D8A405D0FFFF180E016E100EE5D763
:1012C000FFFF1200FFFFFFFF3F50D8B405D03C5096
:1012D0003D103E10D8A40ED0FFFF000E3C6E000E55
:1012E0003D6E000E3E6E4ED0FFFF3F2AD8903E323C
:1012F0003D323C32FFFF000E3C14416E000E3D14A7
:10130000426EFE0E3E14436E415042104310D8B45C
:101310000DD0EAD7FFFF3F2A010E3C26000E3D22EA
:10132000000E3E22D8903E323D323C32FFFF000E8E
:101330003C14416E000E3D14426EFF0E3E14436E8F
:10134000415042104310D8B407D0E4D7FFFF3F0606
:10135000D8903C363D363E36FFFF3DBE03D0020EF0
:101360003F60F4D7FFFF3FA03D9ED8903F323F50F3
:101370003E124050D8A43E8E3CC03CF03DC03DF0F3
:101380003EC03EF0FFFF1200FFFFFFFF11041210EE
:10139000D8A420D0010E456E060E446E010E466E96
:1013A00000EC0EF0010E456E020E446E010E466E0C
:1013B00000EC0EF0010E456E010E446E010E466EFD
:1013C00000EC0EF0000E1F6E010E1E6E000E126E6F
:1013D000000E116EFFFFE7EC0AF01350D8A424D0E2
:1013E0002E0E0D6E140E0E6E000E126E010E116E8C
:1013F000000E1F6E000E1E6E010E456E060E446E30
:10140000000E466E00EC0EF0010E456E020E446EAC
:10141000000E466E00EC0EF0010E456E010E446E9D
:10142000000E466E00EC0EF0FFFF1200FFFFFFFF04
:1014300011041210D8A414D0020E456E010E446E91
:10144000000E466E00EC0EF0010E456E060E446E68
:10145000000E466E00EC0EF0000E126E000E116EC5
:10146000FFFFA3EC0AF00009D8B409D0020E456EC4
:10147000010E446E010E466E00EC0EF009D0FFFF27
:10148000020E456E010E446E000E466E00EC0EF02C
:10149000FFFF1304D8A410D0000E126E010E116EBF
:1014A0008A0E0D6E130E0E6E020E456E010E446E08
:1014B000000E466E00EC0EF0FFFF1200FFFFFFFF74
:1014C0004B50D8A419D0010E456E030E446E49C08E
:1014D000D9FF4AC0DAFFDF50466E00EC0EF0010E75
:1014E000456E070E446E49C0D9FF4AC0DAFFDF508F
:1014F000466E00EC0EF019D0FFFF010E456E000E97
:10150000446E49C0D9FF4AC0DAFFDF50466E00EC96
:101510000EF0010E456E040E446E49C0D9FF4AC05C
:10152000DAFFDF50466E00EC0EF0FFFF49C0D9FF36
:101530004AC0DAFFDF50010A49C0D9FF4AC0DAFFCA
:10154000DF6E1200FFFFFFFF14C050F015C051F016
:101550002E50D8A41BD050C044F051C045F0D1EC5F
:101560000EF044C047F045C048F046C049F0660E52
:101570004A6EE00E4B6E430E4C6E2AEC0BF0D8B068
:1015800005D0010EFFFF2E6E010E1ED0FFFF2E04B0
:10159000D8A418D0CD0E476EF40E486E430E496E97
:1015A00050C044F051C045F0D1EC0EF044C04AF0B8
:1015B00045C04BF046C04CF02AEC0BF0D8B002D03E
:1015C000000EE0D7FFFF2E50FFFF1200FFFFFFFFCE
:1015D000030E476E010E466E46EC0DF046C050F00D
:1015E00047C051F020502110D8A408D01E501F1021
:1015F000D8A404D02A502B10D8B420D0FFFF800EDE
:10160000476E650E486E440E496E50C044F051C09E
:1016100045F0D1EC0EF044C04AF045C04BF046C056
:101620004CF02AEC0BF0D8B009D0020E456E000E3B
:10163000446E010E466E00EC0EF009D0FFFF020E64
:10164000456E000E446E000E466E00EC0EF0FFFF7D
:101650001200FFFFFFFF49AE0FD0000E4D6E000ECF
:101660004E6E800E4F6E47504D5C476E48504E5840
:10167000486E49504F58496EFFFF4CAE0FD0000ED8
:101680004D6E000E4E6E800E4F6E4A504D5C4A6E8F
:101690004B504E584B6E4C504F584C6EFFFF000E47
:1016A000471A000E481A800E491A000E4A1A000EF8
:1016B0004B1A800E4C1A4A50475C4B5048584C50BD
:1016C0004958D8B002D0D89002D0FFFFD880FFFF91
:1016D0001200FFFFFFFF426E3C50D8B402D0010E53
:1016E00002D0FFFF000EFFFF416E010E426405D0E5
:1016F000000E406E010E3F6E04D0FFFF42C03FF06F
:10170000406AFFFF3FC043F04104D8A40FD043C05C
:101710003DF0010E3E6E3D2A03D0FFFFD8903E36CD
:10172000FFFF3D2EFAD73E50841210D0FFFF43C07A
:101730003DF0010E3E6E3D2A03D0FFFFD8903E36AD
:10174000FFFF3D2EFAD73E50FF0A8416FFFF12001E
:10175000FFFFFFFF426E3C50D8B402D0010E02D012
:10176000FFFF000EFFFF416E070E426405D0000E22
:10177000406E070E3F6E04D0FFFF42C03FF0406A4C
:10178000FFFF3FC043F04104D8A40FD043C03DF059
:10179000010E3E6E3D2A03D0FFFFD8903E36FFFF7C
:1017A0003D2EFAD73E50831210D0FFFF43C03DF0CC
:1017B000010E3E6E3D2A03D0FFFFD8903E36FFFF5C
:1017C0003D2EFAD73E50FF0A8316FFFF1200FFFF9F
:1017D000FFFF010E456E000E446E49C0D9FF4AC09E
:1017E000DAFFDF50466E00EC0EF0010E456E030E80
:1017F000446E49C0D9FF4AC0DAFFDF50466E00ECA4
:101800000EF0010E456E040E446E49C0D9FF4AC069
:10181000DAFFDF50466E00EC0EF0010E456E070E4B
:10182000446E49C0D9FF4AC0DAFFDF50466E00EC73
:101830000EF049C0D9FF4AC0DAFFDF50010A49C0A3
:10184000D9FF4AC0DAFFDF6E1200FFFFFFFF000E74
:101850002D6E000E2C6E000E1D6E000E1C6E000E06
:101860001B6E000E1A6E37EC0FF0FFFF1A501B10A4
:10187000D8B4FBD7000E1B6E000E1A6E49EC0FF0A9
:101880000A0E2D18D8A404D0000E2D6E50EC0FF0C7
:10189000FFFF640E2C18D8A404D0000E2C6E58EC58
:1018A0000FF0FFFFE80E1C18E0E1030E1D18D8A48E
:1018B000DCD7000E1D6E000E1C6E55EC0FF0D5D758
:1018C000FFFFFFFFC350C4CF35F0366A35C036F096
:1018D000356A3512000E3612C2A403D0376A372A91
:1018E00002D0FFFF376AFFFF3750020D160EF324B8
:1018F000D96E000EF420DA6E35C0DEFF36C0DDFF93
:10190000C2B403D0356A352A02D0FFFF356AFFFF23
:1019100035463546C2503518FB0B3518C26E9E9CB5
:10192000C2821200FFFFFFFF446E040E446405D024
:10193000000E436E040E426E04D0FFFF44C042F01E
:10194000436AFFFF42C045F045C03EF045C03FF04E
:10195000010E406E3F2A03D0FFFFD8904036FFFFB4
:101960003F2EFAD740508214416E3E2A03D0FFFF2B
:10197000D8904132FFFF3E2EFAD741503C6E3D6A6F
:101980001200FFFFFFFF000E416E11D0FFFF41501C
:101990003D243F6E000E3E20406E3FC0F6FF40C02B
:1019A000F7FF0800FFFFF55040EC0FF0412AFFFF62
:1019B00041503D243F6E000E3E20406E3FC0F6FF7A
:1019C00040C0F7FF0800FFFFF5500009D8A4DED79C
:1019D0000D0E40EC0FF00A0E40EC0FF01200FFFF6E
:1019E000FFFF01500210D8B40ED001D80CD0FFFF79
:1019F0000500FA6E0150FD6E0250FE6EF850FF6E4B
:101A0000FA501200FFFFFFFF03500410D8B410D0AB
:101A100020EE03F001D80CD0FFFF0500FA6EDE5077
:101A2000FD6EDE50FE6EF850FF6EFA501200FFFFA2
:101A3000FFFF1200FFFFFFFF0D500E10D8B40ED0B5
:101A400001D80CD0FFFF0500FA6E0D50FD6E0E5050
:101A5000FE6EF850FF6EFA501200FFFFFFFF0F50AE
:101A60001010D8B410D020EE0FF001D80CD0FFFF2A
:101A70000500FA6EDE50FD6EDE50FE6EF850FF6E11
:101A8000FA501200FFFFFFFF1200FFFFFFFF000EE2
:101A9000496E000E486E000E46144A6EFF0E471443
:101AA0004B6E4A504B10D8A408D0465093EC0CF023
:101AB0003CC048F03DC049F00DD0FFFF030E4B186D
:101AC0004A10D8A407D046501FEC0EF03CC048F096
:101AD0003DC049F0FFFF48C046F049C047F0120042
:101AE000FFFFFFFF4A6E4950D8A411D0010E456E8A
:101AF000030E446E4AC046F000EC0EF0010E456E37
:101B0000070E446E4AC046F000EC0EF011D0FFFF05
:101B1000010E456E000E446E4AC046F000EC0EF019
:101B2000010E456E040E446E4AC046F000EC0EF005
:101B3000FFFF1200FFFFFFFF496E010E456E000E12
:101B4000446E49C046F000EC0EF0010E456E030EE7
:101B5000446E49C046F000EC0EF0010E456E040ED6
:101B6000446E49C046F000EC0EF0010E456E070EC3
:101B7000446E49C046F000EC0EF01200FFFFFFFF7C
:101B8000000EC46E000EC36EC30EC216CF0EC11679
:101B9000C150F00B0D09C16EC08EC050C70B20099B
:101BA000C06EC050F80B0109C06E9E9C9D8CF28CDB
:101BB000F28EC280190EFFFFE82EFDD7C2821200FE
:101BC000FFFFFFFF040E2F18D8A416D0000E476E9B
:101BD000000E466E46EC0DF046C020F047C021F0E6
:101BE000010E456E050E446E20C046F000EC0EF06E
:101BF000E7EC0AF0000E2F6EFFFF2F2A1200FFFF06
:101C0000FFFF000E4414476EFF0E4514486E480453
:101C10004710D8A406D046C03CF04450A9EC0BF0C5
:101C20000BD0FFFF020E48184710D8A405D046C0BD
:101C30003CF044506AEC0BF0FFFF1200FFFFFFFF87
:101C4000416E010E416405D0000E3F6E010E3E6EE6
:101C500004D0FFFF41C03EF03F6AFFFF3EC040F0AE
:101C60004050020D160EF324D96E000EF420DA6EE9
:101C7000DECF3CF0DDCF3DF01200FFFFFFFF100E86
:101C8000016E110E026EB20E036E1C0E046E000E7B
:101C9000076E000E066E010E056E000E086E000E39
:101CA000096E000E0A6E000E0B6E000E0C6E120016
:101CB000FFFFFFFF000E476E020E466E46EC0DF072
:101CC0004650076E000E476E040E466E46EC0DF051
:101CD0004650086E000E476E030E466E46EC0DF041
:101CE0004650096E1200FFFFFFFFCA94000ECC6E33
:101CF000000ECA6E000ECB6ECA50870B2009CA6E4A
:101D0000CA50FC0B0109CA6E7D0ECB6E9E929F825B
:101D10009D82F28CF28ECA841200FFFFB60EF66E20
:101D20001E0EF76E000EF86E0900F5CF54F0090094
:101D3000F5CF55F000EE01F0340EEE6AE806FDE155
:101D400056905692000EF86E0001E5EF0EF0FFFF80
:101D50002E0E0D6E140E0E6E780E0F6E1D0E106E82
:101D6000000E126E010E116E000E136E000E156E37
:101D7000000E146E1200FFFFFFFF000E476E010EF3
:101D8000466E46EC0DF04650136E030E476E000E85
:101D9000466E46EC0DF046C014F047C015F0120038
:101DA000FFFFFFFF44C03CF045C03DF03E6A8E0E91
:101DB0003F6E000E406E63EC09F03CC044F03DC045
:101DC00045F03EC046F01200FFFFFFFF2DEC0FF084
:101DD000010E3D6E100E3E6EC2EC0CF00DEC0FF0DD
:101DE00026EC0CF026EF00F0FFFF928092829480A8
:101DF0009482948494869488000E956E9690969220
:101E00001200FFFFFFFF010E456E050E446E000E2F
:101E1000466E00EC0EF01200FFFFFFFFF4EC0EF038
:101E200023EC0FF0BFEC0DF074EC0EF01200FFFF8E
:101E3000FFFF2D2A2C2A1C4A1D2A000E1B6E010EA4
:101E40001A6E1200FFFFFFFF9E9C9D8C9E929F8248
:101E50009D82F28CF28E1200FFFFFFFF000E7F6E5C
:101E60000F0EAF6EAC8AAB88AB8E1200FFFFFFFF88
:101E70003EEC0EF002EC0FF0A7EC0EF01200FFFFAC
:101E8000FFFF3C6EFFFFACA2FDD73CC0ADFF1200D0
:101E9000FFFFFFFFF0EC0CF0E1EC0DF01200FFFF94
:101EA000FFFF1BEC0DF01200FFFFFFFF1200FFFF12
:0A1EB000FFFF1200FFFF0101FFFF1A
:020000040020DA
:08000000FFFFFFFFFFFFFFFF00
:020000040030CA
:0E000000FF2F0F1F838385FF0FC00FE00F40FF
:00000001FF
