:0400000026EF00F0F7
:10000800FFFF5882D9CF3AF0DACF3BF0F3CF3CF07C
:10001800F4CF3DF09EBCC2A002D005EC04F0FFFF77
:100028009EB2CAA403D07AEC06F09E92FFFF3DC0B0
:10003800F4FF3CC0F3FF3BC0DAFF3AC0D9FF589247
:100048001100FFFFE6EF05F0FFFF05040610D8A436
:100058000BD009C031F031C00AF0000E066E000E58
:10006800056E0CC026F0276AFFFF5604D8A407D0F7
:1000780031C053F0010EE8EC04F0000E566EFFFF9D
:10008800F40E261810E12704D8A40DD0350E536EAF
:10009800000E546E31C055F046EC02F0000E276E8B
:1000A800000E266E03D0FFFF264A272AFFFF07040B
:1000B800D8A414D0BA0E016E020E026E000E066E9F
:1000C800010E056E000E276E000E266E000E356EB0
:1000D800010E566E000E12EC05F01ED0FFFF075001
:1000E800D8A41AD00850D8A417D00950D8A414D02E
:1000F800260E016E010E026E000E066E010E056ED2
:1001080035C00BF026C00CF0000E276E000E266ED0
:10011800000E356E010E566EFFFF1200FFFFFFFF47
:1001280005040610D8A40CD0000E066E000E056E4D
:100138000BC034F00AC022F0236A0CC024F0256AF0
:10014800FFFFF40E24181EE12504D8A41BD00B5081
:1001580030C060F00001616B6027000E6123050E5E
:1001680060196111D8B40ED0340E536E000E546E5F
:1001780022C055F046EC02F0302A000E256E000E23
:10018800246E10D0FFFF0B5030C060F00001616B8F
:100198006027000E6123050E60196111D8B402D0E2
:1001A800244A252AFFFF0704D8A412D0BA0E016EEC
:1001B800020EFFFF026E000E066E010E056E24C0D1
:1001C8000CF0000E306E000E256E000E246E0CD062
:1001D800FFFF0804D8B403D00904D8A405D0FFFF52
:1001E800500E016E000EE5D7FFFF1200FFFFFFFF64
:1001F8004150D8B405D03E503F104010D8A40ED07E
:10020800FFFF000E3E6E000E3F6E000E406E4ED099
:10021800FFFF412AD89040323F323E32FFFF000EA6
:100228003E14436E000E3F14446EFE0E4014456E9D
:10023800435044104510D8B40DD0EAD7FFFF412AE7
:10024800010E3E26000E3F22000E4022D89040327A
:100258003F323E32FFFF000E3E14436E000E3F1445
:10026800446EFF0E4014456E435044104510D8B4F8
:1002780007D0E4D7FFFF4106D8903E363F364036D8
:10028800FFFF3FBE03D0020E4160F4D7FFFF41A03D
:100298003F9ED8904132415040124250D8A4408EDF
:1002A8003EC03EF03FC03FF040C040F0FFFF1200AC
:1002B800FFFFFFFF05040610D8A407D0000E12ECBC
:1002C80005F0000E066E000E056EFFFF0704D8A4A9
:1002D8001ED05704D8A405D0010E12EC05F0000E6C
:1002E800576EFFFFF40E28180EE12904D8A40BD08E
:1002F800360E536E000E546E8CEC03F0000E296E11
:10030800000E286E10D0FFFF284A292A0CD0FFFFC4
:10031800000E12EC05F0000E296E000E286E010E7C
:10032800576E000E366EFFFF0804D8B403D00904D8
:10033800D8A415D0FFFF0750D8A411D0500E016ED5
:10034800000E026E000E066E010E056E000E296E7E
:10035800000E286E000E366E000E12EC05F0FFFF40
:100368001200FFFFFFFF11041210D8A41CD0010EC9
:100378004F6E060E4E6E010E506E77EC05F0010EB4
:100388004F6E020E4E6E010E506E77EC05F0010EA8
:100398004F6E010E4E6E010E506E77EC05F0000E9A
:1003A800126E000E116EFFFF1350D8A420D0FC0E61
:1003B8000D6E030E0E6E000E126E010E116E010E02
:1003C8004F6E060E4E6E000E506E77EC05F0010E65
:1003D8004F6E020E4E6E000E506E77EC05F0010E59
:1003E8004F6E010E4E6E000E506E77EC05F0FFFF5B
:1003F8001200FFFFFFFF11041210D8A414D0020E40
:100408004F6E010E4E6E000E506E77EC05F0010E29
:100418004F6E060E4E6E000E506E77EC05F0000E15
:10042800126E000E116EFFFF8AEC02F00009D8B4BC
:1004380009D0020E4F6E010E4E6E010E506E77EC13
:1004480005F009D0FFFF020E4F6E010E4E6E000E32
:10045800506E77EC05F0FFFF1304D8A410D0000EFF
:10046800126E010E116E6C0E0D6E030E0E6E020EE4
:100478004F6E010E4E6E000E506E77EC05F0FFFFCA
:100488001200FFFFFFFF5550D8A419D0010E4F6E80
:10049800030E4E6E53C0D9FF54C0DAFFDF50506EC2
:1004A80077EC05F0010E4F6E070E4E6E53C0D9FF64
:1004B80054C0DAFFDF50506E77EC05F019D0FFFF1B
:1004C800010E4F6E000E4E6E53C0D9FF54C0DAFFB6
:1004D800DF50506E77EC05F0010E4F6E040E4E6E35
:1004E80053C0D9FF54C0DAFFDF50506E77EC05F0E7
:1004F800FFFF53C0D9FF54C0DAFFDF50010A53C0D1
:10050800D9FF54C0DAFFDF6E1200FFFFFFFF14C0EF
:1005180052F015C053F02E50D8A41BD052C046F04C
:1005280053C047F042EC06F046C049F047C04AF0D5
:1005380048C04BF0660E4C6EE00E4D6E430E4E6E8C
:10054800CEEC02F0D8B005D0010EFFFF2E6E010EE2
:100558001ED0FFFF2E04D8A418D0CD0E496EF40E7D
:100568004A6E430E4B6E52C046F053C047F042EC01
:1005780006F046C04CF047C04DF048C04EF0CEECF7
:1005880002F0D8B002D0000EE0D7FFFF2E50FFFFD8
:100598001200FFFFFFFF4BAE0FD0000E4F6E000E94
:1005A800506E800E516E49504F5C496E4A505058FB
:1005B8004A6E4B5051584B6EFFFF4EAE0FD0000E97
:1005C8004F6E000E506E800E516E4C504F5C4C6E4C
:1005D8004D5050584D6E4E5051584E6EFFFF000E04
:1005E800491A000E4A1A800E4B1A000E4C1A000EB9
:1005F8004D1A800E4E1A4C50495C4D504A584E5078
:100608004B58D8B002D0D89002D0FFFFD880FFFF57
:100618001200FFFFFFFF446E3E50D8B402D0010E17
:1006280002D0FFFF000EFFFF436E010E446405D0A9
:10063800000E426E010E416E04D0FFFF44C041F02F
:10064800426AFFFF41C045F04304D8A40FD045C01B
:100658003FF0010E406E3F2A03D0FFFFD89040368E
:10066800FFFF3F2EFAD74050841210D0FFFF45C03D
:100678003FF0010E406E3F2A03D0FFFFD89040366E
:10068800FFFF3F2EFAD74050FF0A8416FFFF1200E3
:10069800FFFFFFFF446E3E50D8B402D0010E02D0D7
:1006A800FFFF000EFFFF436E070E446405D0000EE7
:1006B800426E070E416E04D0FFFF44C041F0426A0B
:1006C800FFFF41C045F04304D8A40FD045C03FF018
:1006D800010E406E3F2A03D0FFFFD8904036FFFF3F
:1006E8003F2EFAD74050831210D0FFFF45C03FF08D
:1006F800010E406E3F2A03D0FFFFD8904036FFFF1F
:100708003F2EFAD74050FF0A8316FFFF1200FFFF63
:10071800FFFF010E4F6E000E4E6E53C0D9FF54C03E
:10072800DAFFDF50506E77EC05F0010E4F6E030EC6
:100738004E6E53C0D9FF54C0DAFFDF50506E77ECCD
:1007480005F0010E4F6E040E4E6E53C0D9FF54C013
:10075800DAFFDF50506E77EC05F0010E4F6E070E92
:100768004E6E53C0D9FF54C0DAFFDF50506E77EC9D
:1007780005F053C0D9FF54C0DAFFDF50010A53C057
:10078800D9FF54C0DAFFDF6E1200FFFFFFFF000E33
:10079800336E000E326E000E2D6E000E2C6E000EA3
:1007A8002B6E000E2A6E8FEC06F0FFFF2A502B10DE
:1007B800D8B4FBD7000E2B6E000E2A6E9FEC06F005
:1007C8000A0E3318D8A404D0000E336EA6EC06F037
:1007D800FFFF640E3218D8A404D0000E326EAEECBF
:1007E80006F0FFFFE80E2C18E0E1030E2D18D8A440
:1007F800DCD7000E2D6E000E2C6EABEC06F0D5D7B4
:10080800FFFFFFFFC350C4CF37F0386A37C038F056
:10081800376A3712000E3812C2A403D0396A392A4F
:1008280002D0FFFF396AFFFF3950020D1E0EF32474
:10083800D96E000EF420DA6E37C0DEFF38C0DDFF57
:10084800C2B403D0376A372A02D0FFFF376AFFFFE6
:1008580037463746C2503718FB0B3718C26E9E9C76
:10086800C2821200FFFFFFFFFFFF466E040E4664C0
:1008780005D0000E456E040E446E04D0FFFF46C03E
:1008880044F0456AFFFF44C047F047C040F047C006
:1008980041F0010E426E412A03D0FFFFD890423644
:1008A800FFFF412EFAD742508214436E402A03D0EC
:1008B800FFFFD8904332FFFF402EFAD743503E6ED9
:1008C8003F6A1200FFFFFFFF01500210D8B40ED09C
:1008D80001D80CD0FFFF0500FA6E0150FD6E0250E2
:1008E800FE6EF850FF6EFA501200FFFFFFFF035034
:1008F8000410D8B410D020EE03F001D80CD0FFFFBC
:100908000500FA6EDE50FD6EDE50FE6EF850FF6E8A
:10091800FA501200FFFFFFFF1200FFFFFFFF0D500C
:100928000E10D8B40ED001D80CD0FFFF0500FA6E17
:100938000D50FD6E0E50FE6EF850FF6EFA5012000C
:10094800FFFFFFFF0F501010D8B410D020EE0FF0AB
:1009580001D80CD0FFFF0500FA6EDE50FD6EDE50A8
:10096800FE6EF850FF6EFA501200FFFFFFFF1200F4
:10097800FFFFFFFF000E4B6E000E4A6E000E48147C
:100988004C6EFF0E49144D6E4C504D10D8A408D033
:10099800485038EC04F03EC04AF03FC04BF00DD050
:1009A800FFFF030E4D184C10D8A407D0485058EC40
:1009B80005F03EC04AF03FC04BF0FFFF4AC048F088
:1009C8004BC049F01200FFFFFFFF546E5350D8A4EC
:1009D80011D0010E4F6E030E4E6E54C050F077ECDE
:1009E80005F0010E4F6E070E4E6E54C050F077ECB6
:1009F80005F011D0FFFF010E4F6E000E4E6E54C071
:100A080050F077EC05F0010E4F6E040E4E6E54C098
:100A180050F077EC05F0FFFF1200FFFFFFFF536E69
:100A2800010E4F6E000E4E6E53C050F077EC05F07D
:100A3800010E4F6E030E4E6E53C050F077EC05F06A
:100A4800010E4F6E040E4E6E53C050F077EC05F059
:100A5800010E4F6E070E4E6E53C050F077EC05F046
:100A68001200FFFFFFFF000EC46E000EC36EC30E20
:100A7800C216CF0EC116C150F00B0D09C16EC08E43
:100A8800C050C70B2009C06EC050F80B0109C06EDA
:100A98009E9C9D8CF28CF28EC280190EFFFFE82E70
:100AA800FDD7C2821200FFFFFFFF436E010E4364B1
:100AB80005D0000E416E010E406E04D0FFFF43C00A
:100AC80040F0416AFFFF40C042F04250020D1E0E46
:100AD800F324D96E000EF420DA6EDECF3EF0DDCFBF
:100AE8003FF01200FFFFFFFF000E4E14516EFF0E85
:100AF8004F14526E52045110D8A406D050C03EF084
:100B08004E504DEC03F00BD0FFFF020E521851105F
:100B1800D8A405D050C03EF04E500EEC03F0FFFFB5
:100B28001200FFFFFFFFBA0E016E020E026E620E88
:100B3800036E0B0E046E000E076E000E066E010E9D
:100B4800056E000E086E000E096E000E0A6E000E8D
:100B58000B6E000E0C6E1200FFFFFFFF000E496EB9
:100B6800020E486EBDEC04F04850076E000E496E48
:100B7800040E486EBDEC04F04850086E000E496E35
:100B8800030E486EBDEC04F04850096E1200FFFFDA
:100B9800FFFFCA94000ECC6E000ECA6E000ECB6E1C
:100BA800CA50870B2009CA6ECA50FC0B0109CA6ECD
:100BB8007D0ECB6E9E929F829D82F28CF28ECA84AD
:100BC8001200FFFF620EF66E0D0EF76E000EF86E45
:100BD8000900F5CF56F00900F5CF57F000EE01F007
:100BE800360EEE6AE806FDE158905892000EF86E4F
:100BF800000198EF06F0FFFF040E2F18D8A410D0BC
:100C0800010E4F6E050E4E6E000E496E000E486EB8
:100C1800BDEC04F04850506E77EC05F0000E2F6ED6
:100C2800FFFF2F2A1200FFFFFFFFFC0E0D6E030EC1
:100C38000E6E5A0E0F6E0C0E106E000E126E010E16
:100C4800116E000E136E000E156E000E146E12005B
:100C5800FFFFFFFF000E496E010E486EBDEC04F069
:100C68004850136E030E496E000E486EBDEC04F03A
:100C780048C014F049C015F01200FFFFFFFF46C03E
:100C88003EF047C03FF0406A8E0E416E000E426E45
:100C9800FBEC00F03EC046F03FC047F040C048F0D3
:100CA8001200FFFFFFFF92809282948094829484C6
:100CB80094869488000E956E969096921200FFFF87
:100CC800FFFF010E4F6E050E4E6E000E506E77EC54
:100CD80005F01200FFFFFFFF56EC06F085EC06F06A
:100CE80036EC05F0CCEC05F01200FFFFFFFF332ACD
:100CF800322A2C4A2D2A000E2B6E010E2A6E120063
:100D0800FFFFFFFF9E9C9D8C9E929F829D82F28C8E
:100D1800F28E1200FFFFFFFF96EC05F064EC06F080
:100D280018EC06F01200FFFFFFFF6FEC06F0CAECAC
:100D380003F026EF00F0FFFF67EC04F0FFEC05F08E
:100D48001200FFFFFFFF92EC04F01200FFFFFFFF0D
:0E0D58001200FFFFFFFF1200FFFF0101FFFF6F
:020000040020DA
:08000000FFFFFFFFFFFFFFFF00
:020000040030CA
:0E000000FF2F0F1F838385FF0FC00FE00F40FF
:00000001FF
