:0400000026EF00F0F7
:10000800FFFF4F82D9CF31F0DACF32F0F3CF33F0A0
:10001800F4CF34F09EBCC2A002D097EC03F0FFFFEF
:100028009EB2CAA403D02FEC06F09E92FFFF34C004
:10003800F4FF33C0F3FF32C0DAFF31C0D9FF4F926B
:100048001100FFFF86EF05F0FFFF0E040F10D8A484
:1000580006D012C029F0000E0F6E000E0E6EFFFFC4
:100068004D04D8A407D029C04AF0010E7AEC04F058
:10007800000E4D6EFFFFF40E1F1810E12004D8A4E7
:100088000DD02C0E4A6E000E4B6E29C04CF0D8ECE9
:1000980001F0000E206E000E1F6E03D0FFFF1F4AF6
:1000A800202AFFFF1004D8A414D0DE0E0A6E010E19
:1000B8000B6E000E0F6E010E0E6E000E206E000EFF
:1000C8001F6E000E2C6E010E4D6E000ECDEC04F06E
:1000D8001DD0FFFF1050D8A419D01150D8A416D0A5
:1000E8001250D8A413D0480E0A6E090E0B6E000EDB
:1000F8000F6E010E0E6E000E206E000E1F6E000EAB
:100108002C6E010E4D6E000ECDEC04F0FFFF1200B8
:10011800FFFFFFFF3850D8B405D0355036103710E0
:10012800D8A40ED0FFFF000E356E000E366E000EFE
:10013800376E4ED0FFFF382AD890373236323532F4
:10014800FFFF000E35143A6E000E36143B6EFE0E9D
:1001580037143C6E3A503B103C10D8B40DD0EAD757
:10016800FFFF382A010E3526000E3622000E3722F0
:10017800D890373236323532FFFF000E35143A6EDA
:10018800000E36143B6EFF0E37143C6E3A503B108F
:100198003C10D8B407D0E4D7FFFF3806D8903536DE
:1001A80036363736FFFF36BE03D0020E3860F4D736
:1001B800FFFF38A0369ED890383238503712395061
:1001C800D8A4378E35C035F036C036F037C037F092
:1001D800FFFF1200FFFFFFFF0E040F10D8A407D087
:1001E800000ECDEC04F0000E0F6E000E0E6EFFFF39
:1001F8001004D8A41ED04E04D8A405D0010ECDEC0E
:1002080004F0000E4E6EFFFFF40E21180EE12204DA
:10021800D8A40BD02D0E4A6E000E4B6E1EEC03F0C8
:10022800000E226E000E216E10D0FFFF214A222AF6
:100238000CD0FFFF000ECDEC04F0000E226E000E75
:10024800216E010E4E6E000E2D6EFFFF1104D8B404
:1002580003D01204D8A415D0FFFF1050D8A411D091
:10026800500E0A6E000E0B6E000E0F6E010E0E6E13
:10027800000E226E000E216E000E2D6E000ECDECCB
:1002880004F0FFFF1200FFFFFFFF05040610D8A4CB
:100298001CD0010E466E060E456E010E476E32ECFE
:1002A80005F0010E466E020E456E010E476E32ECE9
:1002B80005F0010E466E010E456E010E476E32ECDA
:1002C80005F0000E066E000E056EFFFF0750D8A45D
:1002D80020D0200E016E030E026E000E066E010E77
:1002E800056E010E466E060E456E000E476E32EC28
:1002F80005F0010E466E020E456E000E476E32EC9A
:1003080005F0010E466E010E456E000E476E32EC8A
:1003180005F0FFFF1200FFFFFFFF05040610D8A439
:1003280014D0020E466E010E456E000E476E32EC7A
:1003380005F0010E466E060E456E000E476E32EC55
:1003480005F0000E066E000E056EFFFF1CEC02F0B5
:100358000009D8B409D0020E466E010E456E010E92
:10036800476E32EC05F009D0FFFF020E466E010E13
:10037800456E000E476E32EC05F0FFFF0704D8A467
:1003880010D0000E066E010E056E900E016E020E64
:10039800026E020E466E010E456E000E476E32EC7E
:1003A80005F0FFFF1200FFFFFFFF4C50D8A419D043
:1003B800010E466E030E456E4AC0D9FF4BC0DAFFE8
:1003C800DF50476E32EC05F0010E466E070E456EA3
:1003D8004AC0D9FF4BC0DAFFDF50476E32EC05F058
:1003E80019D0FFFF010E466E000E456E4AC0D9FFB8
:1003F8004BC0DAFFDF50476E32EC05F0010E466E57
:10040800040E456E4AC0D9FF4BC0DAFFDF50476E75
:1004180032EC05F0FFFF4AC0D9FF4BC0DAFFDF50CE
:10042800010A4AC0D9FF4BC0DAFFDF6E1200FFFF96
:10043800FFFF08C049F009C04AF02750D8A41BD0D4
:1004480049C03DF04AC03EF0F7EC05F03DC040F031
:100458003EC041F03FC042F0660E436EE00E446E6F
:10046800430E456E60EC02F0D8B005D0010EFFFFD8
:10047800276E010E1ED0FFFF2704D8A418D0CD0E7A
:10048800406EF40E416E430E426E49C03DF04AC0C4
:100498003EF0F7EC05F03DC043F03EC044F03FC0ED
:1004A80045F060EC02F0D8B002D0000EE0D7FFFFB4
:1004B8002750FFFF1200FFFFFFFF42AE0FD0000ED4
:1004C800466E000E476E800E486E4050465C406E89
:1004D80041504758416E42504858426EFFFF45AE62
:1004E8000FD0000E466E000E476E800E486E4350C9
:1004F800465C436E44504758446E45504858456ED4
:10050800FFFF000E401A000E411A800E421A000E1C
:10051800431A000E441A800E451A4350405C44505A
:10052800415845504258D8B002D0D89002D0FFFF69
:10053800D880FFFF1200FFFFFFFF3B6E3550D8B495
:1005480002D0010E02D0FFFF000EFFFF3A6E010E2F
:100558003B6405D0000E396E010E386E04D0FFFFE3
:100568003BC038F0396AFFFF38C03CF03A04D8A4E1
:100578000FD03CC036F0010E376E362A03D0FFFF8D
:10058800D8903736FFFF362EFAD73750841210D05E
:10059800FFFF3CC036F0010E376E362A03D0FFFF4E
:1005A800D8903736FFFF362EFAD73750FF0A841611
:1005B800FFFF1200FFFFFFFF3B6E3550D8B402D09B
:1005C800010E02D0FFFF000EFFFF3A6E070E3B64DC
:1005D80005D0000E396E070E386E04D0FFFF3BC001
:1005E80038F0396AFFFF38C03CF03A04D8A40FD07D
:1005F8003CC036F0010E376E362A03D0FFFFD89084
:100608003736FFFF362EFAD73750831210D0FFFF48
:100618003CC036F0010E376E362A03D0FFFFD89063
:100628003736FFFF362EFAD73750FF0A8316FFFFFB
:100638001200FFFFFFFF010E466E000E456E4AC016
:10064800D9FF4BC0DAFFDF50476E32EC05F0010EE0
:10065800466E030E456E4AC0D9FF4BC0DAFFDF5025
:10066800476E32EC05F0010E466E040E456E4AC028
:10067800D9FF4BC0DAFFDF50476E32EC05F0010EB0
:10068800466E070E456E4AC0D9FF4BC0DAFFDF50F1
:10069800476E32EC05F04AC0D9FF4BC0DAFFDF5095
:1006A800010A4AC0D9FF4BC0DAFFDF6E1200FFFF14
:1006B800FFFF000E2B6E000E2A6E000E266E000E37
:1006C800256E000E246E000E236E44EC06F0FFFF2C
:1006D80023502410D8B4FBD7000E246E000E236ECE
:1006E80054EC06F00A0E2B18D8A404D0000E2B6E7A
:1006F8005BEC06F0FFFF640E2A18D8A404D0000EA5
:100708002A6E63EC06F0FFFFE80E2518E0E1030E01
:100718002618D8A4DCD7000E266E000E256E60ECD5
:1007280006F0D5D7FFFFFFFFC350C4CF2EF02F6AC6
:100738002EC02FF02E6A2E12000E2F12C2A403D044
:10074800306A302A02D0FFFF306AFFFF3050020DB6
:100758001B0EF324D96E000EF420DA6E2EC0DEFFD5
:100768002FC0DDFFC2B403D02E6A2E2A02D0FFFFAD
:100778002E6AFFFF2E462E46C2502E18FB0B2E184F
:10078800C26E9E9CC2821200FFFFFFFFFFFF3D6EFC
:10079800040E3D6405D0000E3C6E040E3B6E04D082
:1007A800FFFF3DC03BF03C6AFFFF3BC03EF03EC050
:1007B80037F03EC038F0010E396E382A03D0FFFFFB
:1007C800D8903936FFFF382EFAD7395082143A6E4E
:1007D800372A03D0FFFFD8903A32FFFF372EFAD7D7
:1007E8003A50356E366A1200FFFFFFFF0A500B10B1
:1007F800D8B40ED001D80CD0FFFF0500FA6E0A500D
:10080800FD6E0B50FE6EF850FF6EFA501200FFFF9F
:10081800FFFF0C500D10D8B410D020EE0CF001D80A
:100828000CD0FFFF0500FA6EDE50FD6EDE50FE6E46
:10083800F850FF6EFA501200FFFFFFFF1200FFFF93
:10084800FFFF01500210D8B40ED001D80CD0FFFF22
:100858000500FA6E0150FD6E0250FE6EF850FF6EF4
:10086800FA501200FFFFFFFF03500410D8B410D055
:1008780020EE03F001D80CD0FFFF0500FA6EDE5021
:10088800FD6EDE50FE6EF850FF6EFA501200FFFF4C
:10089800FFFF1200FFFFFFFF000E426E000E416EC9
:1008A800000E3F14436EFF0E4014446E4350441034
:1008B800D8A408D03F50CAEC03F035C041F036C088
:1008C80042F00DD0FFFF030E44184310D8A407D000
:1008D8003F5013EC05F035C041F036C042F0FFFF41
:1008E80041C03FF042C040F01200FFFFFFFF4B6ED7
:1008F8004A50D8A411D0010E466E030E456E4BC067
:1009080047F032EC05F0010E466E070E456E4BC0FF
:1009180047F032EC05F011D0FFFF010E466E000ED5
:10092800456E4BC047F032EC05F0010E466E040EE2
:10093800456E4BC047F032EC05F0FFFF1200FFFF99
:10094800FFFF0E040F10D8A407D0000E0F6E000E84
:100958000E6E000ECDEC04F0FFFF1004D8A40AD0F0
:10096800DE0E0A6E010EFFFF0B6E000E0F6E010EFB
:100978000E6E0CD0FFFF1104D8B403D01204D8A413
:1009880005D0FFFF500E0A6E000EEDD7FFFF1200D4
:10099800FFFFFFFF4A6E010E466E000E456E4AC00D
:1009A80047F032EC05F0010E466E030E456E4AC064
:1009B80047F032EC05F0010E466E040E456E4AC053
:1009C80047F032EC05F0010E466E070E456E4AC040
:1009D80047F032EC05F01200FFFFFFFF000EC46E77
:1009E800000EC36EC30EC216CF0EC116C150F00B57
:1009F8000D09C16EC08EC050C70B2009C06EC05013
:100A0800F80B0109C06E9E9C9D8CF28CF28EC28000
:100A1800190EFFFFE82EFDD7C2821200FFFFFFFF6D
:100A28003A6E010E3A6405D0000E386E010E376E2C
:100A380004D0FFFF3AC037F0386AFFFF37C039F0FB
:100A48003950020D1B0EF324D96E000EF420DA6E15
:100A5800DECF35F0DDCF36F01200FFFFFFFF000ECE
:100A68004514486EFF0E4614496E49044810D8A430
:100A780006D047C035F04550DFEC02F00BD0FFFF41
:100A8800020E49184810D8A405D047C035F0455083
:100A9800A0EC02F0FFFF1200FFFFFFFF000E406E08
:100AA800020E3F6E4FEC04F03F50106E000E406E89
:100AB800040E3F6E4FEC04F03F50116E000E406E76
:100AC800030E3F6E4FEC04F03F50126E1200FFFF12
:100AD800FFFFCA94000ECC6E000ECA6E000ECB6EDD
:100AE800CA50870B2009CA6ECA50FC0B0109CA6E8E
:100AF8007D0ECB6E9E929F829D82F28CF28ECA846E
:100B08001200FFFFCC0EF66E0C0EF76E000EF86E9C
:100B18000900F5CF4DF00900F5CF4EF000EE01F0D9
:100B28002D0EEE6AE806FDE14F904F92000EF86E2A
:100B380000014DEF06F0FFFF040E2818D8A410D0CE
:100B4800010E466E050E456E000E406E000E3F6E9D
:100B58004FEC04F03F50476E32EC05F0000E286E63
:100B6800FFFF282A1200FFFFFFFFDE0E0A6E010EAC
:100B78000B6EA20E0C6E0A0E0D6E000E106E000E9D
:100B88000F6E010E0E6E000E116E000E126E120028
:100B9800FFFFFFFF200E016E030E026EC40E036EF0
:100BA8000B0E046E000E066E010E056E000E076E2B
:100BB800000E096E000E086E1200FFFFFFFF000E08
:100BC800406E010E3F6E4FEC04F03F50076E030E6F
:100BD800406E000E3F6E4FEC04F03FC008F040C07E
:100BE80009F01200FFFFFFFF3DC035F03EC036F0B0
:100BF800376A8E0E386E000E396E8DEC00F035C0F7
:100C08003DF036C03EF037C03FF01200FFFFFFFF57
:100C18009280928294809482948494869488000E20
:100C2800956E969096921200FFFFFFFF010E466E9A
:100C3800050E456E000E476E32EC05F01200FFFF00
:100C4800FFFF0BEC06F03AEC06F0F1EC04F06CEC6C
:100C580005F01200FFFFFFFF2B2A2A2A254A262A21
:100C6800000E246E010E236E1200FFFFFFFF9E9CF4
:100C78009D8C9E929F829D82F28CF28E1200FFFFC5
:100C8800FFFFB8EC05F019EC06F0CDEC05F012000A
:100C9800FFFFFFFF24EC06F05CEC03F026EF00F00A
:100CA800FFFFF9EC03F09FEC05F01200FFFFFFFFD8
:100CB80024EC04F01200FFFFFFFF1200FFFFFFFF0C
:080CC8001200FFFF0101FFFF14
:020000040020DA
:08000000FFFFFFFFFFFFFFFF00
:020000040030CA
:0E000000FF2F0F1F838385FF0FC00FE00F40FF
:00000001FF
