:0400000026EF00F0F7
:10000800FFFF5882D9CF3CF0DACF3DF0F3CF3EF076
:10001800F4CF3FF09EBCC2A002D07FEC04F0FFFFFB
:100028009EB2CAA403D0FFEC06F09E92FFFF3FC029
:10003800F4FF3EC0F3FF3DC0DAFF3CC0D9FF589241
:100048001100FFFF2FEF06F0FFFF05040610D8A4EC
:100058000BD009C035F035C00AF0000E066E000E50
:10006800056E0CC02AF02B6AFFFF5604D8A40DD0E9
:10007800000E2F6E010E2E6E35C04DF0010E62EC93
:1000880005F005EC03F0000E566EFFFFF40E2A187B
:1000980015E12B04D8A412D037C02EF02F6A370EE2
:1000A8004D6E000E4E6E35C04FF07DEC02F005EC43
:1000B80003F0000E2B6E000E2A6E03D0FFFF2A4AB3
:1000C8002B2AFFFF0704D8A41AD0480E016E010E90
:1000D800026E000E066E010E056E000E2B6E000EEF
:1000E8002A6E000E376E010E566E000E2F6E000E31
:1000F8002E6E000E8CEC05F005EC03F01ED0FFFF11
:100108000750D8A41AD00850D8A417D00950D8A49A
:1001180014D0280E016E020E026E000E066E010E3D
:10012800056E37C00BF02AC00CF0000E2B6E000EC7
:100138002A6E000E376E010E566EFFFF1200FFFF8B
:10014800FFFF05040610D8A407D0000E8CEC05F0BC
:10015800000E066E000E056EFFFF0704D8A429D016
:100168005704D8A40BD0010E8CEC05F0000E2F6EAE
:10017800010E2E6E05EC03F0000E576EFFFFF40E15
:100188002C1813E12D04D8A410D038C02EF02F6AF3
:10019800380E4D6E000E4E6E06EC04F005EC03F0C2
:1001A800000E2D6E000E2C6E16D0FFFF2C4A2D2A45
:1001B80012D0FFFF000E2F6E000E2E6E000E8CEC7C
:1001C80005F005EC03F0000E2D6E000E2C6E010EEE
:1001D800576E000E386EFFFF0804D8B403D0090428
:1001E800D8A41BD0FFFF0750D8A417D0500E016E1B
:1001F800000E026E000E066E010E056E000E2D6ECC
:10020800000E2C6E000E386E000E2F6E000E2E6E35
:10021800000E8CEC05F005EC03F0FFFF1200FFFF69
:10022800FFFF05040610D8A40CD0000E066E000EC1
:10023800056E0BC036F00AC026F0276A0CC028F0FD
:10024800296AFFFFF40E281823E12904D8A420D036
:100258000B5034C064F00001656B6427000E652301
:10026800050E64196511D8B413D036C02EF02F6A64
:10027800360E4D6E000E4E6E26C04FF07DEC02F02D
:1002880005EC03F0342A000E296E000E286E10D0FB
:10029800FFFF0B5034C064F00001656B6427000E4B
:1002A8006523050E64196511D8B402D0284A292A95
:1002B800FFFF0704D8A412D0480E016E010EFFFFFD
:1002C800026E000E066E010E056E28C00CF0000EC0
:1002D800346E000E296E000E286E0CD0FFFF080445
:1002E800D8B403D00904D8A405D0FFFF500E016E7E
:1002F800000EE5D7FFFF1200FFFFFFFF4350D8B401
:1003080005D0405041104210D8A40ED0FFFF000E77
:10031800406E000E416E000E426E4ED0FFFF432A23
:10032800D890423241324032FFFF000E4014456EF1
:10033800000E4114466EFE0E4214476E455046109C
:100348004710D8B40DD0EAD7FFFF432A010E402644
:10035800000E4122000E4222D890423241324032F1
:10036800FFFF000E4014456E000E4114466EFF0E4E
:100378004214476E455046104710D8B407D0E4D70A
:10038800FFFF4306D890403641364236FFFF41BE54
:1003980003D0020E4360F4D7FFFF43A0419ED890DC
:1003A8004332435042124450D8A4428E40C040F0D9
:1003B80041C041F042C042F0FFFF1200FFFFFFFFC3
:1003C80011041210D8A420D0010E496E060E486EF2
:1003D800010E4A6EF1EC05F0010E496E020E486EF0
:1003E800010E4A6EF1EC05F0010E496E010E486EE1
:1003F800010E4A6EF1EC05F0000E236E010E226E1E
:10040800000E126E000E116EFFFF05EC03F0135084
:10041800D8A424D06A0E0D6E040E0E6E000E126E55
:10042800010E116E000E236E000E226E010E496E33
:10043800060E486E000E4A6EF1EC05F0010E496E8C
:10044800020E486E000E4A6EF1EC05F0010E496E80
:10045800010E486E000E4A6EF1EC05F0FFFF120027
:10046800FFFFFFFF11041210D8A414D0020E496E2A
:10047800010E486E000E4A6EF1EC05F0010E496E51
:10048800060E486E000E4A6EF1EC05F0000E126E74
:10049800000E116EFFFFC1EC02F00009D8B409D0BC
:1004A800020E496E010E486E010E4A6EF1EC05F01F
:1004B80009D0FFFF020E496E010E486E000E4A6E0B
:1004C800F1EC05F0FFFF1304D8A410D0000E126E53
:1004D800010E116EC60E0D6E030E0E6E020E496EE3
:1004E800010E486E000E4A6EF1EC05F0FFFF120097
:1004F800FFFFFFFF4F50D8A419D0010E496E030E1D
:10050800486E4DC0D9FF4EC0DAFFDF504A6EF1EC9D
:1005180005F0010E496E070E486E4DC0D9FF4EC05A
:10052800DAFFDF504A6EF1EC05F019D0FFFF010E3B
:10053800496E000E486E4DC0D9FF4EC0DAFFDF503D
:100548004A6EF1EC05F0010E496E040E486E4DC07E
:10055800D9FF4EC0DAFFDF504A6EF1EC05F0FFFF1D
:100568004DC0D9FF4EC0DAFFDF50010A4DC0D9FF98
:100578004EC0DAFFDF6E1200FFFFFFFF14C054F019
:1005880015C055F03250D8A41BD054C048F055C0FF
:1005980049F0C7EC06F048C04BF049C04CF04AC0DF
:1005A8004DF0660E4E6EE00E4F6E430E506E48ECE8
:1005B80003F0D8B005D0010EFFFF326E010E1ED039
:1005C800FFFF3204D8A418D0CD0E4B6EF40E4C6E3B
:1005D800430E4D6E54C048F055C049F0C7EC06F0C4
:1005E80048C04EF049C04FF04AC050F048EC03F004
:1005F800D8B002D0000EE0D7FFFF3250FFFF120044
:10060800FFFFFFFF030E4B6E010E4A6E37EC05F03D
:100618004AC054F04BC055F024502510D8A408D037
:1006280022502310D8A404D02E502F10D8B420D094
:10063800FFFF800E4B6E650E4C6E440E4D6E54C01F
:1006480048F055C049F0C7EC06F048C04EF049C024
:100658004FF04AC050F048EC03F0D8B009D0020E71
:10066800496E000E486E010E4A6EF1EC05F009D095
:10067800FFFF020E496E000E486E000E4A6EF1EC46
:1006880005F0FFFF1200FFFFFFFF4DAE0FD0000E79
:10069800516E000E526E800E536E4B50515C4B6E75
:1006A8004C5052584C6E4D5053584D6EFFFF50AE43
:1006B8000FD0000E516E000E526E800E536E4E50CB
:1006C800515C4E6E4F5052584F6E50505358506EAA
:1006D800FFFF000E4B1A000E4C1A800E4D1A000E2A
:1006E8004E1A000E4F1A800E501A4E504B5C4F5047
:1006F8004C5850504D58D8B002D0D89002D0FFFF77
:10070800D880FFFF1200FFFFFFFF466E4050D8B4AD
:1007180002D0010E02D0FFFF000EFFFF456E010E52
:10072800466405D0000E446E010E436E04D0FFFFF0
:1007380046C043F0446AFFFF43C047F04504D8A4CD
:100748000FD047C041F0010E426E412A03D0FFFF8F
:10075800D8904236FFFF412EFAD74250841210D06B
:10076800FFFF47C041F0010E426E412A03D0FFFF50
:10077800D8904236FFFF412EFAD74250FF0A84161E
:10078800FFFF1200FFFFFFFF466E4050D8B402D0B3
:10079800010E02D0FFFF000EFFFF456E070E4664F4
:1007A80005D0000E446E070E436E04D0FFFF46C00E
:1007B80043F0446AFFFF43C047F04504D8A40FD074
:1007C80047C041F0010E426E412A03D0FFFFD89086
:1007D8004236FFFF412EFAD74250831210D0FFFF56
:1007E80047C041F0010E426E412A03D0FFFFD89066
:1007F8004236FFFF412EFAD74250FF0A8316FFFF09
:100808001200FFFFFFFF010E496E000E486E4DC03B
:10081800D9FF4EC0DAFFDF504A6EF1EC05F0010E49
:10082800496E030E486E4DC0D9FF4EC0DAFFDF5047
:100838004A6EF1EC05F0010E496E040E486E4DC08B
:10084800D9FF4EC0DAFFDF504A6EF1EC05F0010E19
:10085800496E070E486E4DC0D9FF4EC0DAFFDF5013
:100868004A6EF1EC05F04DC0D9FF4EC0DAFFDF50FB
:10087800010A4DC0D9FF4EC0DAFFDF6E1200FFFF3C
:10088800FFFF000E316E000E306E000E216E000E5E
:10089800206E000E1F6E000E1E6E14EC07F0FFFF98
:1008A8001E501F10D8B4FBD7000E1F6E000E1E6E10
:1008B80024EC07F00A0E3118D8A404D0000E316ECB
:1008C8002BEC07F0FFFF640E3018D8A404D0000EFC
:1008D800306E33EC07F0FFFFE80E2018E0E1030E5E
:1008E8002118D8A4DCD7000E216E000E206E30EC43
:1008F80007F0D5D7FFFFFFFFC350C4CF39F03A6ADE
:1009080039C03AF0396A3912000E3A12C2A403D03B
:100918003B6A3B2A02D0FFFF3B6AFFFF3B50020DB8
:10092800600EF324D96E000EF420DA6E39C0DEFFB3
:100938003AC0DDFFC2B403D0396A392A02D0FFFFBA
:10094800396AFFFF39463946C2503918FB0B391846
:10095800C26E9E9CC2821200FFFFFFFFFFFF486E1F
:10096800040E486405D0000E476E040E466E04D08F
:10097800FFFF48C046F0476AFFFF46C049F049C03C
:1009880042F049C043F0010E446E432A03D0FFFFF2
:10099800D8904436FFFF432EFAD744508214456E50
:1009A800422A03D0FFFFD8904532FFFF422EFAD7E4
:1009B8004550406E416A1200FFFFFFFF01500210D0
:1009C800D8B40ED001D80CD0FFFF0500FA6E015044
:1009D800FD6E0250FE6EF850FF6EFA501200FFFFD7
:1009E800FFFF03500410D8B410D020EE03F001D854
:1009F8000CD0FFFF0500FA6EDE50FD6EDE50FE6E75
:100A0800F850FF6EFA501200FFFFFFFF1200FFFFC1
:100A1800FFFF0D500E10D8B40ED001D80CD0FFFF38
:100A28000500FA6E0D50FD6E0E50FE6EF850FF6E0A
:100A3800FA501200FFFFFFFF0F501010D8B410D06B
:100A480020EE0FF001D80CD0FFFF0500FA6EDE5043
:100A5800FD6EDE50FE6EF850FF6EFA501200FFFF7A
:100A6800FFFF1200FFFFFFFF000E4D6E000E4C6EE1
:100A7800000E4A144E6EFF0E4B144F6E4E504F1020
:100A8800D8A408D04A50B2EC04F040C04CF041C0A1
:100A98004DF00DD0FFFF030E4F184E10D8A407D00D
:100AA8004A5010EC06F040C04CF041C04DF0FFFF3A
:100AB8004CC04AF04DC04BF01200FFFFFFFF4E6ED6
:100AC8004D50D8A411D0010E496E030E486E4EC089
:100AD8004AF0F1EC05F0010E496E070E486E4EC063
:100AE8004AF0F1EC05F011D0FFFF010E496E000E3F
:100AF800486E4EC04AF0F1EC05F0010E496E040E46
:100B0800486E4EC04AF0F1EC05F0FFFF1200FFFFFF
:100B1800FFFF4D6E010E496E000E486E4DC04AF043
:100B2800F1EC05F0010E496E030E486E4DC04AF017
:100B3800F1EC05F0010E496E040E486E4DC04AF006
:100B4800F1EC05F0010E496E070E486E4DC04AF0F3
:100B5800F1EC05F01200FFFFFFFF000EC46E000E5F
:100B6800C36EC30EC216CF0EC116C150F00B0D09CD
:100B7800C16EC08EC050C70B2009C06EC050F80BA4
:100B88000109C06E9E9C9D8CF28CF28EC280190E5B
:100B9800FFFFE82EFDD7C2821200FFFFFFFF040E01
:100BA8003318D8A416D0000E4B6E000E4A6E37ECE0
:100BB80005F04AC024F04BC025F0010E496E050E21
:100BC800486E24C04AF0F1EC05F005EC03F0000E85
:100BD800336EFFFF332A1200FFFFFFFF000E481499
:100BE8004B6EFF0E49144C6E4C044B10D8A406D023
:100BF8004AC040F04850C7EC03F00BD0FFFF020E8C
:100C08004C184B10D8A405D04AC040F0485088EC86
:100C180003F0FFFF1200FFFFFFFF456E010E456462
:100C280005D0000E436E010E426E04D0FFFF45C092
:100C380042F0436AFFFF42C044F04450020D600E88
:100C4800F324D96E000EF420DA6EDECF40F0DDCF4B
:100C580041F01200FFFF6C0EF66E0E0EF76E000EDE
:100C6800F86E0900F5CF56F00900F5CF57F00001EE
:100C7800636B626B616B606B00EE01F0380EEE6ABD
:100C8800E806FDE158905892000EF86E00011DEF3D
:100C980007F0FFFF480E016E010E026ED00E036EC4
:100CA8000C0E046E000E076E000E066E010E056E29
:100CB800000E086E000E096E000E0A6E000E0B6E16
:100CC800000E0C6E1200FFFFFFFF000E4B6E020EAF
:100CD8004A6E37EC05F04A50076E000E4B6E040E54
:100CE8004A6E37EC05F04A50086E000E4B6E030E44
:100CF8004A6E37EC05F04A50096E1200FFFFFFFFFD
:100D0800CA94000ECC6E000ECA6E000ECB6ECA508E
:100D1800870B2009CA6ECA50FC0B0109CA6E7D0EEA
:100D2800CB6E9E929F829D82F28CF28ECA841200B4
:100D3800FFFFFFFF6A0E0D6E040E0E6E640E0F6E3F
:100D48000D0E106E000E126E010E116E000E136E57
:100D5800000E156E000E146E1200FFFFFFFF000E4E
:100D68004B6E010E4A6E37EC05F04A50136E030EB7
:100D78004B6E000E4A6E37EC05F04AC014F04BC0BB
:100D880015F01200FFFFFFFF48C040F049C041F0D6
:100D9800426A8E0E436E000E446E81EC01F040C034
:100DA80048F041C049F042C04AF01200FFFFFFFF7F
:100DB8009280928294809482948494869488000E7F
:100DC800956E969096921200FFFFFFFF010E496EF6
:100DD800050E486E000E4A6EF1EC05F01200FFFF9A
:100DE800FFFFDBEC06F00AEC07F0B0EC05F083EC53
:100DF80006F01200FFFFFFFF312A302A204A212A7D
:100E0800000E1F6E010E1E6E1200FFFFFFFF9E9C5C
:100E18009D8C9E929F829D82F28CF28E1200FFFF23
:100E2800FFFF4DEC06F0E9EC06F09DEC06F0120031
:100E3800FFFFFFFFF4EC06F044EC04F026EF00F0AF
:100E4800FFFFE1EC04F0D2EC05F01200FFFFFFFF1A
:100E58000CEC05F01200FFFFFFFF1200FFFFFFFF81
:080E68001200FFFF0101FFFF72
:020000040020DA
:08000000FFFFFFFFFFFFFFFF00
:020000040030CA
:0E000000FF2F0F1F838385FF0FC00FE00F40FF
:00000001FF
